:020000022000DC
:1060000000000420756302005D6302005F6302000C
:106010006163020063630200656302000000000028
:1060200000000000000000000000000067630200A4
:1060300069630200000000006B6302006D630200F0
:106040006D8502006F6302001D8A02006F6302000B
:106050006F6302006F63020071880200D594020032
:106060006F6302006F6302006F6302006F630200E0
:106070006F6302006F6302006F6302006F630200D0
:106080006F630200FD7002006F6302006F63020025
:10609000997102006F63020075BD02006F63020018
:1060A0006F6302006F630200619902006F63020078
:1060B0006F6302006F630200000000000000000038
:1060C0006F6302006F6302006F6302006F63020080
:1060D0006F6302006F6302006F6302006F63020070
:1060E0006F6302006F6302006F6302000000000034
:1060F000000000006F630200000000006F630200F8
:10610000000000000000000000000000000000008F
:10611000000000000000000000000000000000007F
:10612000000000000000000000000000000000006F
:10613000000000000000000000000000000000005F
:10614000000000000000000000000000000000004F
:10615000000000000000000000000000000000003F
:10616000000000000000000000000000000000002F
:10617000000000000000000000000000000000001F
:10618000000000000000000000000000000000000F
:1061900000000000000000000000000000000000FF
:1061A00000000000000000000000000000000000EF
:1061B00000000000000000000000000000000000DF
:1061C00000000000000000000000000000000000CF
:1061D00000000000000000000000000000000000BF
:1061E00000000000000000000000000000000000AF
:1061F000000000000000000000000000000000009F
:10620000354936480A1A02D0072291438D4634494F
:1062100034480A1A06D00722914381F309880222E2
:1062200082F3148830483149314A00F044F831484B
:106230003149324A00F03FF831483249324A00F0E1
:106240003AF832483249334A00F035F83248334997
:10625000334A00F030F833483349344A00F02BF821
:1062600033483449344A00F026F83448344900228F
:1062700000F02CF833483449002200F027F8334866
:106280003349091A082902DB002202604160314AC1
:1062900090471F481F49884205D00268043003B464
:1062A000904703BCF7E700208646EC46002000211B
:1062B000294A9047FEE7884207D0521A05D0037852
:1062C00001300B700131013AF9D17047884202D098
:1062D00002700130FAE770470000042000E003205C
:1062E0000000042000000420E8D90200982A0020C1
:1062F000FC2A0020D4630200D463020044CA0200D6
:10630000E8D90200982A0020982A002050CB0200E9
:1063100050CB020050CB020050CB020050CB020009
:1063200050CB020050CB020050CB0200E7D9020054
:106330004CDA0200FC2A0020FC2A0020FC2A002063
:10634000243D0020243D0020243D0020243D002049
:10635000245D00209D63020045A40200FEE7FEE7E5
:10636000FEE7FEE7FEE7FEE7FEE7FEE7FEE7FEE705
:10637000704700BF1048804710484FF0070188431E
:1063800085460F4880470F48016841F4700101605D
:10639000BFF34F8FBFF36F8FFFF732BF0A480B4930
:1063A0000B4A884207D0521A05D0037801300B708F
:1063B0000131013AF9D170477163020000000420F5
:1063C000CD7F020088ED00E050CB0200982A00202B
:0463D000982A0020E7
:1063D4007047000007B5044B0093044A402300F0C3
:1063E40032F803B05DF804FBF5630200FD2A0020D7
:1063F4002DE9F84388461446B2B10F4B0F4E0325DE
:10640400002743F00109224608EB0701002004F0AD
:10641400AFF90744241A48B933782BB14FF47A40C2
:10642400C847013D02D13570BDE8F88301233370BC
:10643400002CE8D1F8E700BF50CB0200FC2A002072
:10644400704704F0C9B9F0B595B01D461646084624
:106454000C4601F0F3FC1A9B0D93CDE90865002569
:106464002B46082205A920460A958DF82C500C9538
:1064740001F001FD079B0293069B03939DF81430E2
:106484008DF8115003F00302012A1DD1BDF8142028
:10649400059DC3F3C203C2F383168DF81030B20016
:1064A40008230EA9204601F0E6FCC5F3952508ABA8
:1064B4000093324602AB0EA9284600F055FB204655
:1064C40001F0C0FC15B0F0BD022AF8D1BDF8165099
:1064D400C3F3C203C5F389158DF810300827082DBE
:1064E4002E4628BF08263B4632460EA9204601F018
:1064F400C2FCAD1B08AB02AA31460EA8374400F01B
:1065040097FB002DEBD1DAE708B5FFF79AFF0448B3
:10651400042100F091FA034B01225A7108BD00BF17
:1065240040CB0200982A0020037813F0040216D00E
:1065340003F00303012B03D0022B09D00120704781
:106544000A6800880232C0F3831002440A60F5E747
:106554000B684288023303EB92130B60EEE710469C
:10656400704700002DE9F04F87B000230446861CD5
:106574000DF107000F4615468DF8073001F00CF9B0
:10658400454801683960D0E90132134401335B1A8C
:10659400824600F21C4700F5836900F21448B342B6
:1065A4001CD30020002D73D004F00F039B0143F093
:1065B400050363F30F00DAF80020DAF8083013401B
:1065C400033316444AF823009DF80700CAF8006014
:1065D40001F006F9012007B0BDE8F08F012138462B
:1065E40001F05FF9484601F074F9404601F071F991
:1065F400DAF80400DAF808B0029000EA0B0003307D
:106604000AEB800002A9FFF78FFF029B50BB0BEA45
:1066140003020AEB820203F1020CD26803920133F3
:1066240003EA0B0B0AEB8B0B02F00302012ADBF8E3
:106634000C10CDF808C023D0022A16D08346404659
:1066440001F04AF910B1029BCAF8043059463846A1
:1066540001F027F9DAE901231344DAF800200133C1
:106664009B1A9CE70BEA0300C9E7BDF80E30C3F39D
:10667400891303334FEA114B0CEB93030293DEE7C8
:10668400BDF80C30C3F383134FEA114B6344F5E7B1
:10669400A40544F006008EE7102C00200B4B0C4898
:1066A400FF2210B59A600022C3F81824C3E900221F
:1066B400C3F8142483F8202401F079FB044610B9AC
:1066C400044801F021FC204610BD00BF102C00201E
:1066D400ACCA02008CCB020030B50A4C71B10A4A34
:1066E4000A49121BD20800239A4201D1002030BD6E
:1066F40031F82350854202D00133F5E7034654F8BC
:106704003300F4E7C0CA020040CB0200982A0020FC
:10671400094B013903EBC000032909D8DFE801F074
:106724000A020406042070470079704740797047D4
:106734000020704702207047C0CA0200034BD3E90F
:106744000030C31A58425841704700BF102C002033
:106754002DE9F04387B0FFF7F1FF0646002840F02B
:10676400F9807D4DC5F81804BFF34F8F6B68AC6892
:1067740002932340033305EB830002A9FFF7D4FE01
:10678400029B18B1D5F81824002A5FD004EA03024A
:10679400991C013305EB8202234005EB8303D26885
:1067A400DB68049302F00303022B0392029160D18D
:1067B400BDF80E306948C3F38917502FB84628BF77
:1067C4004FF0500868F38F1308F10801ADF80E304C
:1067D40001F005FB0646002800F0A78001F02EFB1F
:1067E4000023082203A9304601F03BFB029924EA66
:1067F40001020132B8EB820F4FEA820332D95FFA09
:1068040088F85BB32140DCB2A8EB040803315FFADB
:1068140088F9A046524C05EB8101082342463046D4
:1068240001F01FFB34B108F108034A462146304603
:1068340001F017FB029B033703EB97070297D5F888
:106844001834002B49D1D5F8104459E02A689A42EB
:106854008FD86A60304607B0BDE8F08340491C46D3
:106864009946DAE70C40E11C0823424605EB810116
:10687400DDE7012B59D1BDF80C303848C3F383113F
:10688400062928BF062161F3891302318900ADF876
:106894000C3001F0A4FA0646002846D001F0CEFAE6
:1068A4000023082203A9304601F0DBFA0027BDF8D3
:1068B4000C20C2F38312BB00974203F10803BED23B
:1068C40002994A1C21400331029205EB8101042202
:1068D400304601F0C6FA0137E9E7304601F0B2FA72
:1068E400FFF72CFF80F00100C6B2B3E7E3685B79E1
:1068F40023B1236831461B6820469847E3681C6827
:10690400002CF3D1304601F09DFA0DF107008DF80B
:10691400074000F041FFD5F818340BB9029B6B60B7
:106924009DF8070000F05CFFDAE7D5F8104454B98D
:106934000C4B0D480D49C01AC008000440F0020079
:1069440000F062F8CCE7236820469B689847E36828
:106954001C68ECE700267DE7102C0020ACCA02007E
:106964001C2C0020C0CA020000CB020074CB020021
:106974002DE9F74F224D04460F46924601A9012204
:106984001846D5F808909B46FFF7ECFD20B3019E0E
:106994004FF00008B21CD84508EB020126D1194873
:1069A400002100F04FFF80F31000000440EA14407F
:1069B400E400731C04F0380403EA090306EA090638
:1069C40044F0010405EB8303033644EA881444EAE3
:1069D4008724D86045F8264095F820341BB1FFF78A
:1069E400B7FE0028FBD103B0BDE8F08F09EA01012E
:1069F40005EB81015AF82830CB6008F10108CAE799
:106A0400102C00202C30002000231A46FFF7B0BFC2
:106A140007B50123019201AAFFF7AAFF03B05DF8AD
:106A240004FB07B5CDE9002302236A46FFF7A0FF64
:106A340003B05DF804FB000030B50F49D1F8102411
:106A440003460020144634B9DC6820714AB9C1F801
:106A54001034226030BDE4682579854206D024686C
:106A6400F1E7D268116821601360F3E701300A2866
:106A7400E8D14FF0FF30EDE7102C0020094A38B57B
:106A84000123D2F8104482F820341D4604B938BDDD
:106A9400E3685D71236820465B689847E3681C6877
:106AA400F4E700BF102C002007B503460846197A06
:106AB400052911D05B7A2BB1094A0A49019000F0EB
:106AC4006EFF01980849019000F069FF019803B036
:106AD4005DF804EB00F058BF002AF8D0F2E700BFDD
:106AE40098CB02009DCB0200C2D2020030B5C3880D
:106AF40085B004460D4633B1144A00921449154A30
:106B0400284600F04CFF217A05291DD0637A4BB149
:106B1400A088FFF7FDFD104B104953F820202846AC
:106B240000F03DFF227A0E4BA08853F822200392F6
:106B34000021FFF7D1FD039A0A490346284605B010
:106B4400BDE8304000F02BBF05B030BD98CB02004B
:106B5400A8CB0200A0CB020024CC02009DCB0200F3
:106B640048CC0200C0CB02002DE9F04385B01F469B
:106B74000C9D002395F80C902B7306460C4690460A
:106B840029463846FFF7B2FFB8F1060F09D8DFE807
:106B940008F00412181F283340003146284600F03C
:106BA400FEFE002229463846FFF77EFF85F80C904A
:106BB40005B0BDE8F08322683146284600F0EFFEB8
:106BC400EFE7D4E900233146284600F0E8FEE8E781
:106BD400A36800933146D4E90023284600F0DFFE81
:106BE400DFE7E3680193A36800933146D4E9002307
:106BF400284600F0D4FED4E723690293E3680193A6
:106C0400A36800933146D4E90023284600F0C7FE68
:106C1400C7E76369039323690293E3680193A36855
:106C240000933146D4E90023284600F0B8FEB8E7C3
:106C340008292DE9F74F80460E4617461C4639D8D9
:106C4400002593F80C901D7319461046FFF74EFF6C
:106C5400DFF880A0DFF880B0AE422ED918F8052006
:106C64005946204600F09BFE0135082DF4D1184901
:106C7400DFF868A0DFF868B0204600F090FE002539
:106C8400AE421FD918F805200192104605F0D6FA35
:106C94000028019A594608BF2E22204600F07FFEA4
:106CA4000135082DECD1012221463846FFF7FCFEC0
:106CB40084F80C9003B0BDE8F08F5146204600F0F4
:106CC4006EFED1E75146204600F069FEE8E700BFBA
:106CD400D4CB0200D0CB0200CACB0200D2CB02003C
:106CE400D6CB02002DE9F04F364E87B04FF00009A5
:106CF400354B1B785FFA89F5AB4202D807B0BDE883
:106D0400F08F324BD3F800A01AF835000124D6E9ED
:106D1400001EA0F12002C0F1200304FA02F224FABA
:106D240003F3134304FA00FC059301EA0C030093F4
:106D3400059B0EEA03030193DDE9002313430AEBE9
:106D4400C50B3BD0059B21EA0C012EEA0303C6E9DF
:106D5400001301F07DFD01461AF835001C4DA0F129
:106D64002002C0F1200304FA02F224FA03F31343CD
:106D7400D5E900C28440134004EA0C040393A0F153
:106D84002002C0F1200321FA03F3029401FA02F86D
:106D940048EA0308DDE9023401FA00F7444508BF74
:106DA400BB420BD1DBF8043043B19BF80120541EE5
:106DB40062426241551A69426941984709F10109E1
:106DC40096E700BF00310020CC30002008310020BD
:106DD400F8300020F8B506461E4800F0C3FBC0BBDF
:106DE4000125A6F12004C6F1200325FA03F305FAD0
:106DF40004F41C43184BD3E900C2B5400CEA050067
:106E040002EA040101431F461DD1304601F020FD72
:106E1400124BD3E9001288B129432243C3E900127B
:106E2400D7E900231C430E4B0A4819681543C7E9E8
:106E340000540022BDE8F84000F04CBB21EA0501F3
:106E440022EA0402EAE72CEA050522EA0404C3E97B
:106E54000054F8BDD430002000310020F830002068
:106E6400D0300020042A2DE9F34105460C4616468D
:106E740039D901F01DFCD8B11C4B1D491D601D4BB7
:106E8400DFF884801C701C4B00221E600023C1E9C3
:106E940000231A49C1E90023013CE4B20026032778
:106EA400FF2C0CD1164A1748002100F001FB03E027
:106EB40001F0C4FB0028DFD002B0BDE8F08105EB8F
:106EC400C40315F834009B788DF80660424601A986
:106ED4008DF804708DF8053001F0F4FB013CE4B248
:106EE4000028DDD0E8E70720E6E700BF08310020EE
:106EF400F8300020CC300020D030002000310020B9
:106F0400E96C02005CCC0200D96D020070B5084D3A
:106F1400084E00242B789C4201D3002070BD3368B6
:106F2400012113F8340001F049FC0134F2E700BFF9
:106F3400CC300020083100201FB50021039001AAA5
:106F440044F20100CDE9011100F004F805B05DF848
:106F540004FB000010B572B6FFF790FDFFF7F8FBD5
:106F64000028FBD1104B114C1149E41AE408240405
:106F740044F00100FFF748FD0E4B1B68DB0700D50A
:106F840000BE0D4944F00200FFF73EFDBFF34F8FF2
:106F94000A490B4BCA6802F4E0621343CB60BFF3A7
:106FA4004F8F00BFFDE700BFC0CA020000CB020044
:106FB40060CC0200F0ED00E06CCC020000ED00E0DB
:106FC4000400FA0549B152B1531E1A4007D1826038
:106FD40001608380C260104670470E20704709200C
:106FE400704710B58468C2688388121B934208D323
:106FF400C26813400268D154C3680133C3600020DF
:1070040010BD0420FCE78268C3689A420AD08268F3
:10701400838813400268D35C0B70836801338360F8
:107024000020704705207047094A5378917801334E
:10703400DBB2994208BF0023117899421FBF037045
:107044005078182303FB002014BF0430002070473D
:107054000C31002073B5054600240DF107000E46DF
:107064008DF8074000F098FB0DF10600FFF7DCFFF8
:1070740090B10670094B9DF8062045605A709DF842
:10708400070000F0ADFB24B9054B4FF48012C3F8A0
:107094000021204602B070BD0424F0E70C3100202A
:1070A40000E100E0024B4FF43C6043F00103184759
:1070B40080CC020038B50C4B0C4C4FF40032C3F8B2
:1070C400802001254FF48033C4F84833C4F80833D2
:1070D4006560FFF7E7FF064BA56000241C60FFF71F
:1070E400E1FF044B1C7038BD00E100E000100140DA
:1070F4002832002019320020F8B51F4B1F491B68A5
:107104000025C1F84051C1F84451C1F84851C1F8B3
:107114004C51C1F80051C1F804514BB3D1F80445A6
:1071240017490968641A24F07F442F461A68A2425A
:1071340009D8A41A15441A7CDE691AB1D3E90520CA
:107144001F749047AEB90F4A0F4B11781B788B42CE
:1071540005D10133DBB2022B08BF00231370127870
:107164000A4B43F822500A4B4FF48012C3F8002113
:10717400F8BD3346DAE700BF2C320020001001408E
:107184002832002025320020243200201C32002026
:1071940000E100E02DE9F04FA24AA34913780978F1
:1071A400A24D994285B03CD00133DBB2022B08BF1B
:1071B400002313709E4912789E4B0F6853F82200E7
:1071C4003B1823F07F4300220B602B6816461446BD
:1071D400944613B942B12B6006E0196881420ED976
:1071E40002B12B60091A196001272B68DFF84CA241
:1071F40001934FF00008BEB9DFF848B262E0401ACC
:107204000C44D968D3F81CE0C3F800C031B13A1972
:1072140022F07F42C3E90121DE611E46734601224A
:10722400D7E700263746E0E73446F669804A6368C4
:107234001268DFF814C2A068991A21F07F416145F1
:1072440000F2A88001442160012222742A680023EC
:10725400C4E90133E361002A40F0A5802C60CAE749
:107264009BF802105A1CD2B291428BF8002004BF42
:1072740000228BF80020182202FB03B32A68197934
:107284009C68022977D0032900F08180012919D153
:10729400207CB8B9D3E90312A2605A69E2609A6902
:1072A400654BA2611B78002B0CBF0B460346636041
:1072B400BCE78C4200F094808946C9690029F8D162
:1072C400002323749BF800309BF801209A42C7D115
:1072D4002B68B8F1000F04D1019A9A4201D1002F12
:1072E40043D0002B79D0D3F800A0544D504BD5F89F
:1072F40004751C68DFF854813E1B98F8003026F0B2
:107304007F4603369BB94FF48033C5F84433C5F840
:1073140004334B4B4FF400324FF00109C3F8802182
:107324001A60C5F80090FFF7BDFE88F80090B245DA
:107334002CBF5444A41924F07F44C5F84045D5F823
:107344000435DB1B23F07F43E41B033324F07F4429
:10735400A3420AD9D5F80435C5F84035FFF7A2FE93
:10736400374B4FF40032C3F80021334B00221A701C
:1073740005B0BDE8F08F114691469FE71174D269BC
:107384000123002AFAD1002B9CD02A609AE700231B
:107394001946F6E7D31A23F07F43834234BFC31A56
:1073A4000023236050E721681368994213D8591ABF
:1073B4001160E26152E7091AD8691A4638B10346E6
:1073C40018688842F7D3401A18601846134621609B
:1073D400E061DC610FE71346F2E7FFF76BFEC4E7F9
:1073E4004C4511D1D3692B6073B9DFF844E0012017
:1073F400CDE90212CAF80800CEF800300E4B18701E
:10740400FFF750FEDDE902120B68C969C9F81C10C8
:1074140011B1086803440B602B68934218BF4FF006
:1074240001084DE724320020253200202C320020B0
:10743400283200201C3200201832002000100140A5
:1074440000E100E00C310020FEFF7F001932002033
:1074540008B5FFF72FFE104B00200B2218809A70FE
:107464000E4B18600E4B18700E4B18700E4B4FF4E9
:107474008012C021C3F8802183F814131A6002F12A
:107484008042A2F56F22C2F8080583F81113074B56
:10749400D2F804251A6008BD0C3100202C320020DB
:1074A400243200202532002000E100E028320020B0
:1074B400074B9B784BB132B128B10368187C20B9D3
:1074C40059745A617047072070470820704700BFFD
:1074D4000C3100202DE9F743DFF8848098F802305E
:1074E40005460E461746ABB3A0B3042930D9436909
:1074F40083B3437C0024012B0DF107000CBF8946A4
:10750400A1468DF8074000F047F90DF10600FFF79A
:107514008BFDD8B1012303700F4B4560D3F80435BC
:10752400C0E90497C0E902369DF8063088F80130B6
:107534009DF8070000F054F924B9084B4FF4801269
:10754400C3F80021204603B0BDE8F0830424EFE72C
:107554000724F7E70824F5E70010014000E100E004
:107564000C310020064A92783AB130B1426922B116
:10757400002202740221FFF76DBD0820704700BF8E
:107584000C3100200648074A03780749D35C0122DE
:1075940013B1043001F0B8BE0C3001F07DBC00BF63
:1075A400A02A00209C320020583200200648074AB6
:1075B40003780749D35C012213B1043001F056BEAD
:1075C4000C3001F017BC00BFA02A00209C32002020
:1075D4005932002037B50578012D0BD0022D2CD05F
:1075E400F5B91D491D48FFF70EFD002830D1FFF7FE
:1075F400DDFF15E043681A4C19782046FFF7F1FCCB
:1076040080B18DF800500190164B68461B6898476E
:10761400A168E368A2885B1A9A420AD3FFF7B2FF13
:1076240003B030BDA268E3689A42F1D08DF800003F
:10763400EAE70D4B01221A70F2E7C3688DF8005097
:107644000193FFF79FFF074B68461B689847E7E7DE
:1076540003238DF80030F6E7593200204832002029
:10766400343200203032002044320020F0B51F466E
:10767400234B89B004461A600D4600293DD08A8800
:1076840020480968FFF79EFC002834D1AA89A9681C
:107694001D48FFF797FC00282DD11C4E0FCE6D46D8
:1076A4000FC596E80F0085E80F0063690693237CF5
:1076B400174A18488DF81C70003B18BF01238DF839
:1076C4001430637C002B14BF0E2300238DF8153077
:1076D400E3680293A368039323680193694663688C
:1076E400009300F0CDFE30B90B4B187023680133C2
:1076F40001D0FFF747FF09B0F0BD0720FBE700BF4B
:1077040030320020343200204832002088CC02007D
:10771400D9750200A02A00204432002070B5084D1B
:10772400014608482E78FFF76EFC044636B1002364
:107734002B70FFF727FF08B1FFF7FEFB204670BD53
:10774400443200203432002010B501460E48FFF7C1
:1077540048FC0446A8B90D480D4A0378D35C63B1CC
:10776400043001F0C5FD60B90A490748FFF74BFC36
:1077740038B9BDE81040FFF719BF0C3001F080FBA9
:10778400F1E7204610BD00BF48320020A02A0020A7
:107794009C3200205932002070B5EFF3108672B687
:1077A4000C4A946801239CB993600B4B0B4DD3F89E
:1077B400801029401160C3F88050D3F884105160C0
:1077C4004FF0FF32C3F88420047006B962B670BD6E
:1077D4000370FAE75C32002000E100E0FC06FFBD24
:1077E400084B9A6810B55AB150B9EFF3108172B6CC
:1077F400054A1C6814605C685460986001B962B6FC
:1078040010BD00BF5C32002000E100E001F01F0267
:107814004B090121914000EB830000F01EB801F0F8
:107824001F0301229A404B0900EB8300D14300F06F
:107834002CB84B0901F01F0150F82300C84000F098
:107844000100704710B5034653E8000F0A4643E8A9
:10785400002494F0000FF7D110BD10B5034653E88F
:10786400002F42EA010043E8000494F0000FF6D12F
:1078740010BD10B5034653E8000F00EA010243E8C7
:10788400002494F0000FF6D110BD10B5034653E860
:10789400002F02EA010043E8000494F0000FF6D13F
:1078A40010BD10B5034653E8002F02EB010043E876
:1078B400000494F0000FF6D110BD10B5034653E850
:1078C400002FA2EB010043E8000494F0000FF6D16E
:1078D40010BD0121FFF7C1BF0021FFF7CABF10B5DA
:1078E40090B1D0E9012301689B1ADBB20A60013B25
:1078F400DBB2FF2B026802D10020107110BD1168A9
:107904004C1C14600B70F2E70E20F7E737B5054600
:1079140000240DF107008DF80740FFF73DFF2A68AA
:107924006B68116899420ED9481E106011F8014C19
:10793400EB68298A01FB0434AB6811791B1ADBB2AA
:10794400994238BF13719DF80700FFF749FF20469D
:1079540003B030BD37B5054600230DF107000C46D2
:107964008DF80730FFF718FF2A681368591C116057
:10797400E968641A298AB4FBF1F41C709DF80700C5
:10798400FFF72EFF03B030BD826810B504462AB15C
:1079940043690168006998470023A36010BD0EB4D1
:1079A40003B5039921B104AB01AA019300F06EF869
:1079B40002B05DF804EB03B07047826830B4046829
:1079C400551C8560A154D0E901329A4202D330BCDF
:1079D400FFF7DABF30BC70472DE9F84F9846DDE970
:1079E4000A43154682460F460A464FF00109AA4249
:1079F4000FD2C14538BFC14613F0010B01D16CB998
:107A040000240126B8F1010F1BD908F1FF386E4399
:107A1400F8E709F10109B2FBF5F2E8E79B070ED597
:107A2400B8F1000F0CBF30262026A145E9D2013C55
:107A340031465046FFF7C1FF002CF6D1E0E720267F
:107A4400F3E7B7FBF6F39D42E1D9DFF83C80B7FBDF
:107A5400F6F3504618F8031006FB1377FFF7ADFF53
:107A64003346AB42B6FBF5F6F1D2BBF1000F02D0C0
:107A74000CB1A14501D3BDE8F88F20215046013C4B
:107A8400FFF79BFFF4E700BFA8CC02002DE9F74FF6
:107A9400054617468846002900F0428118F8011B64
:107AA40049B92B7B002B00F03B81284603B0BDE88D
:107AB400F04FFFF769BF252940F0B780002698F8FA
:107AC40000302D2B424608F1010823D0302B24D05E
:107AD4002B2B25D000242A2B02F1010123D13B6852
:107AE4001A1D1B683A601C440A4613782E2B26D1B3
:107AF40001324FF0000A104610F8011BA1F1300CBE
:107B0400BCF1090F1DD80A2303FB0A13A3F1300AA1
:107B14000246F0E746F00106D1E746F00206CEE75A
:107B240046F00406CBE711F8013CA3F13000092824
:107B3400DBD80A2202FB0434303C0A46CBE74FF080
:107B4400000A12F8011B01F0FB0068289046F8D0E7
:107B5400782909D86F290CD8632962D022D825291D
:107B640063D0582900F0888098F80030002B95D114
:107B740097E770390829F7D801A353F821F000BF1B
:107B8400FF7C02006D7B02006D7B02008D7C020095
:107B94006D7B02006B7C02006D7B02006D7B02003A
:107BA4007D7C0200642901D06929DDD13A68D2F8CC
:107BB4000090111D89EAE9723960A2EBE9724FF075
:107BC400010B092A35DCD34538BFD3462CB1B9F1B2
:107BD400000F01DB720700D5013CB30702D5BAF1EF
:107BE400000F03D0F00701D44CBB0024B9F1000FFF
:107BF4002DDAC9F100092D212846FFF7DEFE06F033
:107C04000302022A04D1BAF1000F01D11CBB0024E3
:107C1400CDE9004653460A2249462846FFF7DCFED2
:107C2400A2E73B681A1D19783A602846FFF7C5FE9B
:107C34009AE70A230BF1010BB2FBF3F2C1E7A34568
:107C4400D4D220212846013CFFF7B7FECCE77107C8
:107C5400D5D52B21D0E7A345DAD230212846013CE3
:107C6400FFF7ABFED2E73968CDE900460A1D3A605A
:107C740053460A220968D0E739680A1D3A60CDE9FB
:107C8400004653461022F5E73B681A1D3A6016F089
:107C94000106D3F8009028D1B9F1000F03D048466B
:107CA40004F081FB0646B44200D904BB09F1FF3954
:107CB40019F8011F00293FF457AF2846FFF77DFE4E
:107CC400F6E728460136FFF778FE19F80610002972
:107CD400F7D1A642BFF448AF002C3FF445AF2021B2
:107CE4002846013CFFF769FEF3E70026EDE7202173
:107CF4002846013CFFF761FED5E73B681A1D3A6050
:107D0400302128461C68FFF758FE78212846FFF7E3
:107D140054FE00220823CDE90032214610227CE7DC
:107D240003B0BDE8F08F00BF2DE9F84FB0F806A00E
:107D34004579D2F800B09DF828900AFB05F5043D7A
:107D440088460BEB0301A94203F1040488BFA5EBA9
:107D5400030BB4FBFAF607460AFB1644C2F800B05C
:107D64004EB9AAEB04055D4528BF5D46BBF1000F83
:107D740004D1BDE8F88F3F68013EF1E7043408EB15
:107D840006003C442A46B9F1000F0DD02146ABEB66
:107D9400050B04F08AFADA452E443F6855464FF045
:107DA400000428BF5D46E1E701462046EFE7FFF700
:107DB40096BDF8B546790146721E054600239342E6
:107DC4002D6803D30024A64202D8F8BD0133F6E798
:107DD4000F682846FFF7BEFD01343946F3E72DE965
:107DE400F843068ACD1C0746FFF790FD043E354450
:107DF4000446B5FBF6F5F0B14FF48073EDB2838021
:107E0400C680013D076081464FF00008A84512D2A4
:107E14003846FFF77BFD064648B163790133637149
:107E240008F10108C9F8000007608146EEE7204622
:107E3400FFF7BFFF34462046BDE8F8830121043034
:107E4400FFF72FBD10B5012104460430FFF735FDBF
:107E540010F0FF0F04D12046BDE81040FFF7A9BF82
:107E640010BD1FB503920022009203AAFFF75CFF26
:107E740005B05DF804FB1FB503920122009203AA2A
:107E8400FFF752FF05B05DF804FB41DF70470000C7
:107E9400064B10B500241C70054B1C60BFF35F8FAC
:107EA4000449054800F039F8204610BD703200201E
:107EB40074320020C4CC02006832002007B50023CD
:107EC4000DF107008DF80730FFF766FCF1EE103A6C
:107ED40023F09F03E1EE103ABFF35F8F094B40227A
:107EE400C3F884219DF80700FFF77AFC03F026FF0E
:107EF40020B1FFF7CAFF03B05DF804FB20BF40BF09
:107F040020BFF8E700E100E0836800225A60C3E97B
:107F140004229A60DA601A6070470B684A6843600A
:107F2400934208BF0023016008BF43607047436861
:107F340043B10268916852680B449342436004BFA2
:107F4400002343607047000010B50D49A1F59472F9
:107F5400914201D800200FE08C1AE30F03EBE403F5
:107F64005B1002EBC30452F83330834205D802D2CB
:107F740004F10802ECE7606810BD2146E8E700BFA1
:107F8400C8D1020008B5FFF7DFFF024B002808BF85
:107F9400184608BD8AD0020010B50446C0B2FFF7E7
:107FA400D3FB204610BD0000054B1B68082B01BF06
:107FB400044B1868B0FA80F0400918BF00207047DD
:107FC400300100103401001008B54FF08043002246
:107FD400C3F80C21C3F81021C3F838254FF08052A0
:107FE40003F54043D2F80414C3F82015D2F808145A
:107FF400C3F82415D2F80C14C3F82815D2F81014B9
:10800400C3F82C15D2F81414C3F83015D2F8181488
:10801400C3F83415D2F81C14C3F84015D2F8201450
:10802400C3F84415D2F82414C3F84815D2F8281418
:10803400C3F84C15D2F82C14C3F85015D2F83014E8
:10804400C3F85415D2F83414C3F86015D2F83814B0
:10805400C3F86415D2F83C14C3F86815D2F8401478
:10806400C3F86C15D2F84424C3F87025FFF79CFFBD
:1080740010B1384B384A1A60FFF796FF18B1374BE6
:10808400FB22C3F81825FFF78FFF48B13449354B5D
:108094000A681B6822F00F0203F00F0313430B60FE
:1080A400FFF782FF18B1304B4FF400721A604FF0A3
:1080B4008043D3F80024D20744BF6FF00102C3F811
:1080C40000242A4AD2F8883043F47003C2F8883076
:1080D400BFF34F8FBFF36F8F4FF01023D3F80022FD
:1080E400002A03DBD3F80432002B2FDA204B0122C1
:1080F400C3F80425D3F80024002AFBD04FF0102243
:108104001221C2F80012D3F80024002AFBD04FF049
:1081140010231222C3F80422154B1A46D3F8001474
:108124000029FBD00021C3F80415D2F80034002B39
:10813400FBD0BFF34F8F0D490E4BCA6802F4E062C7
:108144001343CB60BFF34F8F00BFFDE70A4B0B4ACD
:108154001A6008BD8C5600404881030000F00040BE
:10816400E40E0040580200104096024000ED00E08A
:1081740000E001400400FA05B42A00200090D00376
:10818400074B1B5C1F2B8ABF064A4FF0A04203F02B
:108194001F03D2F80405D840C04300F00100704723
:1081A400CCD1020000030050074B1B5C1F2B86BF81
:1081B400064903F01F034FF0A041012202FA03F322
:1081C400C1F80C35704700BFCCD102000003005049
:1081D400074B1B5C1F2B86BF064903F01F034FF0A0
:1081E400A041012202FA03F3C1F80835704700BF29
:1081F400CCD102000003005008B50020FFF7E8FFCF
:108204000120FFF7E5FF0220FFF7E2FFBDE8084089
:108214000320FFF7DDBF08B50020FFF7C5FF0120ED
:10822400FFF7C2FF0220FFF7BFFFBDE808400320AD
:10823400FFF7BABF0A4B185C1F288ABF094B4FF0DF
:10824400A04300F01F00D3F804250121814021EA56
:1082540002000A40C3F80805C3F80C25704700BFA4
:10826400CCD1020000030050074B1B5C1F2B8ABFBC
:10827400064A4FF0A04203F01F03D2F81005D8407D
:10828400C04300F001007047C8D102000003005051
:108294000B2809D00C2809D0182809D019280CBF9C
:1082A40003204FF0FF3070470020704701207047D3
:1082B40002207047014B185C704700BFC8D1020010
:1082C400C20710B504460CD54FF0A0430322C3F8EF
:1082D4003427C3F83827C3F83C27C3F84027FFF7EF
:1082E4008BFFA3070AD54FF0A0430C22C3F82C2719
:1082F400C3F83027C3F86027C3F8642710BD000013
:1083040038B5074C051E04F1080318BF1C46236842
:108314002BB11A6822605B6828469847F7E738BD96
:108324008032002020B9054B01225A70FFF7E8BFC4
:10833400012802D1014A9070F8E770477832002092
:1083440020B9034B01225A70FFF7DABF704700BF10
:108354007832002038B50B4C237883B90A4863601F
:10836400A3602361E36000F0D3F8054603F0E6FC64
:1083740008B900F0D9F801232370284638BD8525B3
:10838400FBE700BF783200202983020037B50B4C8D
:1083940000230DF107008DF80730FFF7FDF9E368BE
:1083A400013BE360E56815B900F0D2F8A5709DF8CB
:1083B4000700FFF715FA03B030BD00BF7832002084
:1083C400012813B508D003281CD018B9104B01227A
:1083D400C3F8802002B010BD0E4C00230DF107003D
:1083E4008DF80730FFF7D8F923780BB9FFF7B2FF00
:1083F400E3689DF807000133E3600123A370FFF7EE
:10840400EFF9E7E700F090F8FFF7C0FFE2E700BFFD
:1084140000E100E0783200201FB503788DF80030C9
:1084240043680193037A8DF80830C368054A0393BF
:10843400054B684653F8213052F82110984705B08F
:108444005DF804FB8C320020943200201FB50378C1
:108454008DF800304368019383688DF80830C36851
:10846400054A0393054B684653F8213052F821100E
:10847400984705B05DF804FB8C320020943200204C
:10848400F0B5194B90F800C0DFF86CE043F82C20ED
:10849400164B16460A6943F82C204B7F0EF80C3015
:1084A4000C4607460FCC89B06D460FC594E80F0003
:1084B40085E80F001EF80C30CDF810C04BB1002E2B
:1084C4000B4A694608BF3246381D00F0EBFD09B07F
:1084D400F0BD002E074A694608BF324607F10C007A
:1084E40000F0ACFBF3E700BF943200208C32002094
:1084F4001D840200518402009C32002000F180405F
:10850400002382B0036003680193019B02B07047AB
:10851400044A137923B901211060918018467047E9
:1085240085207047A0320020084B1A68D20706D471
:10853400C02283F800230122C3F880211A604FF07F
:1085440080430122C3F81825704700BF00E100E012
:10855400044B01221A604FF08042D2F81834DB0336
:10856400FBD470470C000040124B1B6810B573B16C
:108574004FF48070FFF7C2FF4FF080430122C3F82D
:1085840008230D4B587910B95A711B6898470B4B47
:108594001B6873B14FF48270FFF7B0FF4FF0804354
:1085A4000222C3F80823044BBDE810401B680120D5
:1085B400184710BD00010040A03200200401004013
:1085C40000F1804000F5C040002382B003600368DE
:1085D4000193019B02B0704703681F2B83BF03F014
:1085E4001F03036001484FF0A04070470003005090
:1085F40007B5019001A8FFF7EFFF019B00EB830093
:10860400D0F8003723F44033C0F80037D0F80037EF
:1086140043EA0141C0F8001703B05DF804FB000011
:10862400054B4FF0FF32072843F8202084BFC018C1
:1086340080F85820704700BFA832002010B5184CAD
:1086440094F86A3053BB04F130033021FF2201391E
:1086540011F0FF0103F8012BF9D1C8B2FFF7E0FFD5
:1086640001310C29F9D1062200210E4803F046FEFF
:108674000D4BC02283F806234022C3F880214FF417
:10868400BE701A60FFF79CFF084B4FF00042C3F81E
:108694000423012384F86A30002010BD0820FCE77D
:1086A400A83200200C33002000E100E0006000400C
:1086B400034B93F86A00003818BF0120704700BFCD
:1086C400A8320020F7B53B4E3318054693F93030F5
:1086D400002B6CDA8B78C3F34003002B0BBF082408
:1086E40000240C200820844202D1042003B0F0BDF1
:1086F40056F82470013743D1701946F8242080F8C5
:10870400304013B9331983F858508B785A0717D46B
:10871400D80737D501A80195FFF75EFF019B00EB51
:108724008300D0F8003723F00203C0F80037224852
:10873400EA0805F007070123BB40875C3B438354E9
:108744008B780A7813F0020328D0A40004F1804443
:1087540004F5C0442D02D4F8103523F44F3323F428
:108764004073C4F810351204D4F8103505F47C5560
:1087740002F4403215431D43C4F810550020B5E7F8
:108784000134B0E701A84A780195FFF725FF019B62
:1087940003F5E073920040F82320C8E7083C344412
:1087A40094F8605045EA821284F86020E6E70820D5
:1087B4009CE700BFA83200200C33002073B5224C84
:1087C4002618054696F93020072A1ADD224492F825
:1087D40058309B09032B0FD1019001A8FFF7FCFE31
:1087E400019BD0F81015D94001F00101023128464F
:1087F400FFF7FEFE02B070BD012B0CBF0221032166
:10880400F5E7D3B2072BF5D8930003F1804303F5C2
:10881400C043D3F8100540F00100C3F8100502F17D
:108824004000800080B2FFF7CBFE0029E2D096F929
:10883400303054F82330002BDCD0012303FA02F249
:10884400024BC3F80423D5E7A8320020006000409F
:1088540007B5019001A8FFF7BFFE019BD0F81005F2
:10886400D84000F0010003B05DF804FB2DE9F04F9F
:10887400002489B0CDE90244624D4FF48072012195
:1088840002F1804303F5C04390B21B68012B06D16B
:10889400D5F804330B4202D0FFF792FE0C430432A6
:1088A400B2F5907F4FEA4101EAD1574B1B68012B87
:1088B4000ED14FF4BE70FFF783FE4FF0A04344F097
:1088C4000044D3F810350293504BD3F8103503937A
:1088D40014F0FF0F1AD04E4F00250126344210D059
:1088E400AB0003F1804303F5C043D3F81005D3F87C
:1088F400101557F8253023B1C1F30141C0F3052009
:1089040098470135082D4FEA4606E7D1002C75DA61
:1089140004AF002304937B604FF0FF33CDE90633AB
:10892400DFF8EC90DFF8EC800026354618F9012BCF
:10893400531C4AD0C2F3C2000123D4B202F03F0B4D
:1089440002F0070203FA02F208AB191811F8083C06
:1089540013423AD009EB0B03A40993F9303059F8C8
:1089640023A0BAF1000F08D1032C2ED117F800C0B0
:108974004CEA020C07F800C001E0032CF6D001A871
:10898400CDF804B0FFF728FE019B11F8181C03F57D
:10899400E07C114250F82C00C0F3014005D00228BD
:1089A40013D1032C0BD1214604E003280DD1032C51
:1089B40005D102215846FFF71BFE0135EDB2BAF18D
:1089C400000F02D021465846D0470136042EADD1BF
:1089D400A5B14FF0A0430299D3F8102503F54073D5
:1089E4009142D3F8103502D10399994206D00292EC
:1089F4000393049A059B0692079393E709B0BDE895
:108A0400F08F00BF006000407C6100400003005014
:108A1400A832002008330020014B1B68184700BF10
:108A2400143300200E4B984237B50C4602D0002078
:108A340003B030BD00230DF107008DF80730FEF7B9
:108A4400ABFE084B1D7915B901221C601A719DF803
:108A54000700FEF7C5FE002DE9D01120E8E700BFAE
:108A640000200040143300200023435082B04358B8
:108A74000193019B02B070470A4610B54FF48E7102
:108A8400FFF7F2FF136A9168C95C136A013313623A
:108A9400C0F81C1510BD024608B500684FF4927169
:108AA400FFF7E2FF4FF484711068FFF7DDFF1368EE
:108AB40001221A6008BD8B690A4610B54FF484710F
:108AC40023B9FFF7D1FFD0F8183510BDFFF7CCFF5D
:108AD400536AD168D0F81805C854536A01335362F5
:108AE400F3E700001FB501238DF80030044BCDE9F6
:108AF4000110D3E900126846904705B05DF804FB05
:108B04001C33002030B54B48D0F8043313F4007FF5
:108B140085B005464DD0D0F82431002B49D04FF410
:108B24009271FFF7A1FF4FF40173C0F80833424B71
:108B340093F829200AB9012242603E4902228DF8A5
:108B44000020D1F88024C1F8802403929A6902920B
:108B5400DA6801920022C3E906226846D3E90012CA
:108B640090473448D0F81C315BB133490A6A4B69E9
:108B74009A420A464AD291F82830002B46D1FFF790
:108B84007BFF2C48D0F844318BB14FF4A271FFF72E
:108B94006BFF294B93F829200AB1012202609A69DC
:108BA4002AB10022586AD9689A61FFF79BFF05B081
:108BB40030BDD5F804335B07D3D5D5F80831002B85
:108BC400CFD01D4C1B482146FFF775FF636AA2698D
:108BD4009A422346C5D1E269E1684AB12369E36058
:108BE4000023606AA261E3616362FFF77BFFB8E779
:108BF40094F829200AB901226A600E4A4FF40170E0
:108C0400C2F808030022586A9A61EEE74FF48E71A5
:108C14000848FFF729FF51690029B2D000230291C7
:108C240091688DF80030019153616846D2E90013D0
:108C34009847A6E7002000401C3300202DE9F843A4
:108C4400674B057991462C2202FB0532064692F8C1
:108C54002A200C469846002A40F0BD8061490068ED
:108C6400FFF7E0FE0746002840F0B78021684A1C61
:108C740010D01F2987BF5C4A01F01F030B464FF039
:108C8400A0420120984003F5E073C2F808050320D0
:108C940042F823006068431C0DD01F288BBF00F0EE
:108CA4001F030346504A4FF0A04203F5E0734FF010
:108CB400000C42F823C03368A269C3F8242594F851
:108CC40014C0627DBCF1010F4CEA0202C3F86C25AA
:108CD400C3F81405C3F80C152BD1A168481C0DD09A
:108CE4001F298BBF01F01F020A463F484FF0A040E6
:108CF40002F5E0724FF0000C40F822C0E068421C1C
:108D040013D01F2887BF384A00F01F0C84464FF049
:108D1400A0424FF0010E0EFA0CFE0CF5E07CC2F8F6
:108D240008E54FF0030E42F82CE0C3F80805C3F839
:108D340010152C236B4308EB0302C2F8049022693C
:108D440048F80320B9F1000F32D03068227F4FF485
:108D54008E71FFF789FE30684FF4A271FFF784FE2D
:108D640033682249C3F80413190B43F30733002B68
:108D7400A8BF03F160404FEA5313BCBF01F00F04D6
:108D84001B484FEA4212A8BF00F561404FEA830333
:108D9400D2B203F16043B4BF025580F8002303F557
:108DA400614301F01F0101228A40C3F880211A6047
:108DB40033680422C3F800252C2303FB0583002217
:108DC400C3E9062283F829205A61012283F82A2064
:108DD4003846BDE8F8830827FAE71127F8E700BF0B
:108DE4001C330020098B02000003005080000200A5
:108DF40014ED00E02DE9F843204B07794FF02C09DE
:108E040009FB0734054666699846002E33D100688D
:108E14006261A16026624FF48E7184F82860FFF7C6
:108E240023FE2868012383602146FFF725FE63683B
:108E3400A14683B92868226A63699A4211D32B68D0
:108E4400D3F81C21002AFBD00122DA602C2303FB77
:108E5400078300225A613046BDE8F88394F828302D
:108E64003BB9D0F81C31002BF8D04946FFF704FE7B
:108E7400E1E70F26EAE71126EDE700BF1C330020E7
:108E84000379044A2C2101FB03235869003818BFD5
:108E9400012070471C3300202DE9F843394F057930
:108EA4002C2303FB057306465C6824B103684FF466
:108EB4000170C3F808032C2303FB0573986950B1B0
:108EC400D86900283ED024B133684FF40172C3F846
:108ED4000423112433E09A61D9605862D8612C23A9
:108EE40003FB057393F829301BB910B93046FFF71B
:108EF400D2FD4FF02C0909FB05783068D8F804300E
:108F0400002B34D14FF4A271C146FFF7ADFD306898
:108F1400D0F82431D0F80821D0F84441B2B90CB9C2
:108F2400002BF4D02C2202FB05750022AA6123BB7E
:108F34002CBB95F8291033680122B1B11A60204680
:108F4400BDE8F8831961DA610120C8E7002BE9D193
:108F5400002CE7D14946FFF7AEFDD8F82430D8F805
:108F640018209A42D3D82346DCE75A60E7E74FF447
:108F74000173C0F804330024E1E70324DFE70F247E
:108F8400DDE700BF1C3300200023435082B0435868
:108F94000193019B02B070471FB501238DF8003087
:108FA400054B8DF8080001916846D3E900129047FB
:108FB40005B05DF804FB00BF483300207FB5374A95
:108FC400D2F82461002E47D010464FF49271FFF777
:108FD400DBFF02238DF80030D2F88034C2F88034ED
:108FE4000393D2F83C358DF808302D4BDA680192A2
:108FF4000022C3E906226846D3E9001290472748B5
:10900400D0F844316BB14FF4A271FFF7BDFF244B8C
:109014009A6932B100229A61D0F83C05D968FFF709
:10902400BBFF1E48D0F82031A3B14FF49071FFF775
:10903400ABFF1B4B5A696AB1D0F84C158DF8081078
:10904400002299688DF8002001915A616846D3E99D
:109054000012904704B070BDD2F81031002BCED06E
:109064004FF488711046FFF78FFF0D4BD2F83C0583
:1090740099698842C3D1DC69D96864B1D2F80052D5
:1090840025F02005C2F800521A699C61DA60DE619D
:10909400FFF782FFB3E79C61FAE700BF00200040BE
:1090A400483300202DE9F8436B4B0679914624227E
:1090B40002FB0632044692F820200D469846002A08
:1090C40040F0C58065490068FFF7ACFC07460028FE
:1090D40040F0BF802868421C10D01F2887BF604A18
:1090E40000F01F0303464FF0A0420121994003F50D
:1090F400E073C2F80815032142F8231069684B1C79
:109104000DD01F298BBF01F01F030B46544A4FF0AB
:10911400A04203F5E0734FF0000C42F823C023682B
:10912400AA69C3F8242595F814C06A7DBCF1010F1F
:109134004CEA0202C3F86C25C3F80C05C3F81415F5
:109144002BD1A968481C0DD01F298BBF01F01F0229
:109154000A4643484FF0A04002F5E0724FF0000C7D
:1091640040F822C0E868421C13D01F2887BF3C4A3D
:1091740000F01F0C84464FF0A0424FF0010E0EFA8F
:109184000CFE0CF5E07CC2F808E54FF0030E42F843
:109194002CE0C3F80805C3F810152423734308EB27
:1091A4000302C2F804902A6948F80320B9F1000FB9
:1091B4003CD020682A7F4FF48871FFF7E5FE2068D1
:1091C4004FF49071FFF7E0FE20684FF49271FFF7BF
:1091D400DBFE20684FF4A271FFF7D6FE2368214915
:1091E400C3F80413190B43F30733002BA8BF03F18F
:1091F40060404FEA5313BCBF01F00F051A484FEA11
:109204004212A8BF00F561404FEA8303D2B203F1D2
:109214006043B4BF425580F8002303F5614301F075
:109224001F0101228A40C3F880211A6023680822A2
:10923400C3F80025242303FB06830022C3E9062286
:109244005A61012283F820203846BDE8F8830827B4
:10925400FAE71127F8E700BF48330020C18F020066
:10926400000300501003020014ED00E001F060431D
:10927400B3F1005F2DE9F041064632D11B4B07796B
:10928400242505FB073598466C6964BB6A61006850
:10929400A9604FF49071FFF777FE4FF4AC7130681A
:1092A400FFF772FE33686A69A968C3F84415C3F806
:1092B400482501229A606A6862B9D3F82021D3F85C
:1092C400584152B9002CF8D00F24242303FB0787FC
:1092D40000237B612046BDE8F081002C18BF0F24D9
:1092E400F3E71024F6E71124F4E700BF4833002025
:1092F4000379044A242101FB03235869003818BF69
:109304000120704748330020F8B501F06043B3F101
:10931400005F04460F465ED10379304D242101FBE2
:109324000351496821B100684FF40476C0F808631A
:10933400242000FB03539E6956B1D869002839D014
:1093440021B123684FF40472C3F80423112030E0E0
:109354009A61DF60DE6120684FF48871FFF714FEC4
:1093640020684FF4A271FFF70FFE2368C3F8347529
:10937400C3F8382516BB01221A602179242202FB86
:10938400015252680ABBD3F81041D3F84421D3F8F0
:109394002401144302D10028F5D02246242303FBE0
:1093A40001550023984218BF03209A42AB6118BFAD
:1093B4000F20F8BD1F61DA610126CCE7D3F8002243
:1093C40042F02002C3F80022D7E74FF40472C3F836
:1093D40004230020EDE71020EBE700BF4833002012
:1093E4002DE9F74F4FF00009154D164F06464FF083
:1093F400040AC8465FFA89FB01240DF1070004FA48
:109404000BF48DF80780FEF7C7F92C4208D03B68AF
:1094140014EA030201BF23433B6086F800B092467E
:109424009DF80700FEF7DCF9BAF1000F03D0A5435D
:1094340009F10109DED1504603B0BDE8F08F00BF49
:10944400FFFF01006C33002010B5A1B19AB10123D4
:109454008340C3F3100484B10A4C246823420ED021
:10946400C00000F1804000F5F830C0F81015C0F8D5
:109474001425002010BD0E20FCE70720FAE7082081
:10948400F8E700BF6C330020012202FA00F3580C05
:10949400400440B91BB1064A1268134205D0054A7C
:1094A400C2F804357047072070470820704700BF92
:1094B4006C33002000F0014000F1804000F5E040F2
:1094C400002382B0036003680193019B02B07047DC
:1094D400F0B5504B504C1B6885B0002B3DD04FF479
:1094E400827094F82E20FFF7E7FF2AB394F82F3008
:1094F40013BB4A4B1B68002B33D04FF48070FFF72B
:10950400DBFF638B94F82D108B424FD922895B1AB1
:109514009BB292B26383D31A626802EB4303404A5C
:10952400C2F82C36C2F830164FF48270FFF7C4FF2D
:109534003C4B01221A6014E0636802932389ADF85E
:109544000C30E36800218DF8041023BB23742368D6
:1095540001A89847002384F82F3094F82E30002B6C
:10956400C7D1314B1B685BB14FF48870FFF7A4FF80
:109574000023237402238DF8043001A8236898473C
:109584002A4B1B68EBB14FF48A70FFF795FF002359
:10959400237405B0F0BD208B608363602081E1609B
:1095A400002AD4D11E4B01221A60D0E7BCD1E36853
:1095B400012284F82F2013B100226283AFE7638372
:1095C400B2E766694FF000470125002EE1D0B6FAF4
:1095D40086F227FA02F34632920026EA030602F1E3
:1095E400804303F5E0431B68002BEED01046FFF7E1
:1095F40063FFA2F58C72D30882F00402C2F38002E6
:109604008DF808308DF8045023688DF8092001A8DE
:109614009847DAE70471004070330020007100407D
:10962400007000400470004010710040147100404C
:1096340038B51D4B044693F82C0098BB1B4A19609F
:109644002178C2F8F0156178C2F8F415E578187439
:10965400012183F82C1083F82D00586183F82F0022
:1096640083F82E506FF00043C2F808334FF4827031
:10967400FFF722FF4FF48070FFF71EFFA3780C481A
:109684005B01DBB280F807338023C0F880310360CC
:109694000223C2F804330DB1C2F80413C2F8001552
:1096A400002038BD0820FCE7703300200070004023
:1096B40000E100E030B5224B1A7C002A3ED100F1D3
:1096C4000C0403EB4402127922B993F82D200132E1
:1096D40083F82D2003EB4403CA790C7A8D781A7130
:1096E4005C714B782D021B0105F4E06503F0300337
:1096F4002B430D7805F003052B43CD782D0305F49A
:1097040080552B430D792D0405F4E0252B434D7929
:1097140089792D0505F48015090601F080712B4324
:109724000B43010101F1804101F5E0410020C1F842
:109734001835C1F81445C1F8102530BD1120FCE7D7
:1097440070330020054B93F82E30002B14BF0020FB
:10975400042000F1804000F5E040704770330020A1
:1097640070B5264A264B05461220C2F808031C7C15
:10977400022C03D1C2F80403112070BD187C012807
:109784001DD1D86818B10223C2F80433F4E7DD60B0
:10979400198393F82E3063B91A4A1368002BFCD04E
:1097A4004FF48070FFF788FE144BC3F82C56C3F8AF
:1097B4003016124B0222C3F804230020DDE70220F6
:1097C40093F82E40C2F80403012600201E745D6045
:1097D4001981D8603CB1598393F82D30C2F82C56C6
:1097E400C2F83036C9E7C2F82C564FF48070C2F87C
:1097F4003016FFF761FE20461660BEE70070004099
:109804007033002000710040F7B50679334D0C2405
:1098140074432F193B7A002B5ED12A514A687A602F
:10982400447902681F46D8B284424CD842F30733C5
:10983400CC78002BA8BF03F16047C2F307304FEA8E
:109844005313BCBF00F00F0C254F4FEA4414A8BFBC
:1098540007F561474FEA8303E4B203F16043B4BF01
:1098640007F80C4087F8004303F56143012400F036
:109874001F0004FA00F0C3F880011860D2F8040550
:109884004B7820F0030003F003030343C2F80435CC
:109894008B78D2F8080503F0030320F00300034398
:1098A400C2F808350B78D2F8100503F00F0320F046
:1098B4000F010B43C2F810350C2303FB065500209F
:1098C4002C7203B0F0BD980000F5A070013317505E
:1098D400105801900198A6E70820F2E7A033002071
:1098E40014ED00E0036801221A600379034A0C2195
:1098F40001FB032302221A72704700BFA033002029
:1099040037B54FF4803400688C407BB101F15003CB
:109914009B000025C550C3580193019BC0F8044324
:1099240001F5A87140F8212003B030BDC0F8084308
:10993400F6E770B4046840F20116D4F800528E4081
:1099440025EA0605C4F80052D4F800522B43C4F8A3
:1099540000329DF80C3070BCFFF7D2BF2DE9F34103
:10996400104C114F114E00254FF48038236804F534
:10997400C04080B26BB1D7F8043308FA05F21A423A
:1099840007D00023236023680193019BD6E90031AB
:1099940098470135062D04F10404E7D102B0BDE86F
:1099A400F08100BF40A1014000A00140A03300208D
:1099B400034B187810B901221A707047852070473C
:1099C400AC3300200220FEF735BC00002DE9F0473F
:1099D40080460D46FEF75CFC0328044610D8012D92
:1099E40010D0022D30D05DB91A48FDF7BBFD1A4BDB
:1099F40004EB440213449E78184B1B5DB34219D008
:109A0400BDE8F087144D00EB4002A918AE5C4A781B
:109A1400470052B1DFF84C900E484A464FF40041DB
:109A2400FDF758FD08B989F800803B192B449A7852
:109A34000A4B1A55002EE3D0094B1B68002BDFD0CC
:109A44003046BDE8F047184700EB400402480444A0
:109A54006678EFE7D033002010340020293400204A
:109A640024340020AD33002000780221FFF7AEBF7C
:109A740008B5094B1B7853B10020FEF7A9FB012060
:109A8400FEF7A6FBBDE808400320FEF7A1BBBDE836
:109A94000840FEF7B1BB00BFAE330020F8B57B4CE5
:109AA400237805461BB100232370FFF7E1FF172D30
:109AB40000F28880DFE805F00C17174354657680C0
:109AC400888D888D959A9A9A9A9AC4C9D1D9E4E4D2
:109AD400FFF7CEFF6E48FDF745FD6E4B00220446AE
:109AE4001A702046F8BD0020FEF74AFBF8B10020AA
:109AF400FEF76EFB022D0CBF4FF4E1614FF47A6167
:109B0400644B1D704FF400404FF4FA740025E0FBE1
:109B140001454FF47A7200232046294602F09AFA4E
:109B240000220146BDE8F8405948FDF7D3BCFEF7D2
:109B34003BFB022D0CBFC8214FF4C871E0E70020A5
:109B4400FEF71EFB40B10020FEF742FB4FF44871C4
:109B5400504B03221A70D5E7FEF726FBC821F7E71E
:109B64000020FEF70DFB38B10020FEF731FB4FF467
:109B74007A61484B0422EDE7FEF716FB4FF4C871F7
:109B8400F7E70020FEF7FCFA48B10020FEF720FBBF
:109B9400404B05221A7041F69A110022C2E7FEF7E3
:109BA40003FBF5E70020FEF745FB3A4B06221A704B
:109BB400002240F6CD41B5E70020FEF7F5FA354B1B
:109BC40007221A7000248CE701202070FEF732FB74
:109BD400EEE701202070FEF72DFB00224FF48041B8
:109BE400A0E7FEF718FB2B4B0C22EAE72A482B4E82
:109BF400FDF7B8FCD5F1110504461CD0D8B9012DE8
:109C040013D0C8235D434FF400474FF4FA7000218A
:109C14004FF47A720023C7FB050102F01BFA2246B7
:109C240001461D48FDF756FC04460220FEF7BCFA27
:109C34000123337055E70220FEF7CAFA0023F8E740
:109C4400FFF716FF134B1222BBE7FFF711FF0020AB
:109C5400FEF7AAFA0F4B1322B3E7FFF709FF01201F
:109C6400FEF7A2FA0B4B1422ABE7FFF701FF00202B
:109C7400FEF79AFA0120FEF797FA064B1522A0E7A1
:109C8400FEF7C9FA034B1D709CE700BF2034002087
:109C9400F033002028340020B0330020AE330020FD
:109CA400044B1B68DB0703D5034B1878FFF7F6BE9C
:109CB400704700BF1C34002028340020002910B550
:109CC40014BF03240024FEF7F5FA1F288ABF0A4BA9
:109CD4004FF0A04300F01F0003EB8000D0F80027F2
:109CE40022F44032C0F80027D0F8003743EA044396
:109CF400C0F80037002010BD00030050032801D82D
:109D0400FEF7B2BA00207047044B1B6813F001033E
:109D140001D0FFF7C3BE1846704700BF1C340020B3
:109D240038B51C4B18601C4B10F002040546196032
:109D34001AD01A4B1A480E221A700F22DA70102207
:109D44009A7111225A72042140F26662FDF78AF870
:109D5400044648B9FDF7DAF8044628B90146114A21
:109D64001148FDF7A5FB0446EB0711D50120FEF7CA
:109D7400A7FA6CB921460D4A0D48FDF799FB044634
:109D840030B9BDE838400B4A0B480121FDF790BBC0
:109D9400204638BD1C340020243400201034002018
:109DA40004D202006D9A020028D20200A59C02008F
:109DB4002CD20200C999020024D20200032811D82F
:109DC400012A0AD101290FD100F10E02D2B20D4BA2
:109DD40000EB40001A54002070470129F7D00229F3
:109DE40004D049B1072070470022F8E7054B00EB87
:109DF400400018444270EEE7024B00EB4000184468
:109E04008270E8E710340020032802D80121FFF70C
:109E140055BF0620704708B5012202210020FFF734
:109E2400CDFF08B1072810D1072202210120FFF736
:109E3400C5FF08B1072808D100210A220846FFF708
:109E4400BDFF10B1072808BF002008BD0388102BF0
:109E540010B502D0112B1ED010BD1A4C2168B1B917
:109E640001220846FFF7AAFF08B1072824D10722D8
:109E740002210120FFF7A2FF08B107281CD1042208
:109E840002210020FFF79AFF08B1072814D12368A4
:109E940001332360E0E70B4A1368013B1360002B96
:109EA400DAD1FFF7B8FF0028D6D0074B1B68002B88
:109EB400D2D0BDE810401847034B1B68002BE6D0F6
:109EC4009847E4E7343400203034002008B50020FB
:109ED400FFF79AFF08B1062806D10120FFF794FF87
:109EE40010B1062808BF002008BD00000D4B10B5B6
:109EF40018600C4629B10120FFF700FF40B102238E
:109F04002370094B1B6853B9BDE81040FFF783BFAA
:109F1400FFF7F4FE08B10B23F2E72070F1E700200D
:109F240010BD00BF303400203434002076DF704789
:109F34007ADF70477CDF70477FDF70478FDF7047C1
:109F4400B1DF704733DF70477047FCF7F5BF08B5E2
:109F54000020FFF7D9FE08B1FCF7EEFFFFF7B6FFCC
:109F640008B1FCF7E9FFFFF7EDFF18B1BDE80840C1
:109F7400FCF7E2BF08BD00000388212B13B504469B
:109F84003DD007D8112B2BD0132B40D0102B0CD045
:109F940002B010BD522B42D0562B01D03B2BF7D12F
:109FA400A0881321FFF7C2FF15E0214B2148224965
:109FB400C01AC008000440F00300FCF725FD072088
:109FC400FFF7A2FE08B1FCF7B7FF1C4BA1881C48A1
:109FD400198001F081FC0028DAD0FCF7ADFFD7E747
:109FE400134B14481749C01AC008000440F003007A
:109FF400FCF70AFD114B4FF6FF721A80C8E70023E5
:10A0040001A98088ADF80430FFF798FFE3E70B4817
:10A0140000231A4685210088FFF78EFFDBE70748F7
:10A0240000231A4619460088FFF78AFFD3E700BFCA
:10A03400C0CA020000CB020030D20200C02A0020B5
:10A04400B83700203AD202000D4B4A881B889A4246
:10A0540014D10A8840F677239A420FD18B88094A93
:10A0640009480A49033B9BB21380094A801AC00875
:10A0740000041A4640F00300FCF7D3BC704700BF4D
:10A08400C02A0020BE2A002000CB020047D20200D2
:10A09400C0CA020008B503784BB9054B3B211888A8
:10A0A400FFF744FF18B1BDE80840FCF745BF08BD01
:10A0B400C02A0020072808B513D00A280DD0042888
:10A0C40019D10D4B13211888FFF730FF30F0080326
:10A0D40011D0BDE80840FCF72FBFBDE80840FFF7EA
:10A0E40036BF054B1A884FF6FF739A4203D10348D3
:10A0F40000F0C0FFEAE708BDC02A00203435002084
:10A1040008B548B103280BD10220FFF7FDFD38B193
:10A11400BDE80840FCF710BFBDE80840FFF717BFD3
:10A1240008BD0000F7B50378012B33D0022B31D0E2
:10A1340073BB1A4C1A4D20782844FDF7EFFA2378A4
:10A144000133DBB21D44237015F8012C0A2A05D013
:10A154000D2A03D0134A12889A4219D8012B15D913
:10A16400114D0F4E114F2378ADF806300DF1060254
:10A174002B883146384601F025FD082806D01328DF
:10A18400F1D0052802D008B1FCF7D6FE00232370D5
:10A1940003B0F0BD4068FCF7CFFEF9E72C35002092
:10A1A40038340020BE2A0020C02A0020C42A0020FF
:10A1B40030B5037887B004463BBB40680421FFF701
:10A1C400CFFA08B1FCF7B8FE114D1248296802F025
:10A1D4003BF863681048B3F9021002F035F863687D
:10A1E4000E4A5B88ADF804300D4B0E481B8801A95C
:10A1F40001F0E8FC0528034604D033F0080301D03D
:10A20400FCF79AFE2B6801332B6007B030BD00BF0A
:10A214003035002063D2020075D20200B82A002033
:10A22400C02A0020C42A00202DE9F0410578064602
:10A2340045BB154C154BDFF85880E41AE408240498
:10A2440044F00104B28A95420AD33369134413F8E3
:10A25400013C0D2B16D10A20FDF776FA1128F9E7F7
:10A264003369585DFDF770FA074648B11128F7D0F5
:10A27400024641462046FCF7CBFB3846FCF75CFE21
:10A284000135DFE7BDE8F08100CB0200C0CA02005F
:10A294007AD20200FCF750BE08B50849084801F01C
:10A2A40007FA08B1FCF748FE0548F72101F014FA53
:10A2B40018B1BDE80840FCF73FBE08BD4DA0020040
:10A2C4009C3700201FB5FFF773FB08B1FCF734FE81
:10A2D400174A18480023CDE9022302A9164AFFF7BA
:10A2E40093FA08B1FCF728FE144B1548D3F810254F
:10A2F4000021D2B220FA02F2009101230D48FFF7A7
:10A3040018FB0C48FFF7EEFAFFF71CFA04460D4859
:10A31400FFF766F808B1FCF70FFE0A4B0A491878F4
:10A324002246FFF791F808B1FCF706FE04B010BD11
:10A334000900000630D302004D9F020000A0014036
:10A344000024F400B437002040A1014008B5054BB7
:10A354001878FFF799F818B1BDE80840FCF7ECBD90
:10A3640008BD00BFB437002030B5314B8FB01C4658
:10A374001868019054F8040F022261688DF80420D3
:10A384001D4602AA03C255F80D0F217A117069689F
:10A3940005AA03C2297A11701D4608AA55F8160F9A
:10A3A400696803C253F81F0F297A117059681B7A20
:10A3B4000BAA03C24FF481741E49ADF80A4001A8E8
:10A3C400ADF81640ADF822401370ADF82E40FFF7FB
:10A3D4002FF908B1FCF7B0FD02A90020FFF76AF9D4
:10A3E40008B1FCF7A9FD05A90120FFF763F908B13D
:10A3F400FCF7A2FD08A90220FFF75CF908B1FCF7FD
:10A404009BFD0BA90320FFF755F908B1FCF794FD58
:10A4140009480421FFF7A4F908B1FCF78DFD0748AA
:10A424000421FFF79DF908B1FCF786FD0FB030BD9C
:10A43400F0D20200B5A102008C370020943700202E
:10A4440000B5754D0FCDB1B005AC0FC495E8030050
:10A45400724B734A01934FF4807384E80300CDE98F
:10A46400032302936F4A072301A905A8FDF7FEF809
:10A4740008B1FCF761FD4FF400410020FCF70EF930
:10A4840008B1FCF759FDFCF73FF8FCF7E1FF08B110
:10A49400FCF752FD64490320FFF742FC08B1FCF7C6
:10A4A4004BFD05A90020FFF721FD08B1FCF744FD91
:10A4B400FDF7EEFC08B1FCF73FFD01F001FC08B12B
:10A4C400FCF73AFD002305A90120059301F086FC61
:10A4D40008B1FCF731FD05A801F050FD08B1FCF707
:10A4E4002BFD112351488DF8043001F05CFF4F49D6
:10A4F40082B201A8FFF71EFD08B1FCF71DFD002183
:10A50400082205A801F0FAFE49494FF0C87305A8CE
:10A51400CDE90513FFF70CFD08B1FCF70DFDFFF7BE
:10A52400BBFE444B4448059305A901F0C3F908B1A7
:10A53400FCF702FD042200210DEB020001F0DEFE17
:10A544003E4B3F48019301A901F0C2FA08B1FCF760
:10A55400F3FCAC22002105A801F0D0FE02238DF803
:10A5640014304FF4A063374AADF816300123ADF828
:10A57400603019928DF89030402244F25063CDE956
:10A5840027233148314B2E9305A900F0B6FB08B1BF
:10A59400FCF7D2FC2C48012100F0ACFB1C2200216A
:10A5A40005A801F0ABFE00234FF42032CDE90532BB
:10A5B400ADF822304FF470228DF82430244B0792EA
:10A5C4000A930322234B8DF8202005A80B9300F057
:10A5D4006DFE08B1FCF7B0FCFFF774FEFFF7C4FE94
:10A5E400FFF7B4FE1C4801F02FFE1C4B1C481D490C
:10A5F400C01AC008000440F00300FCF705FA124832
:10A60400032100F0F1FB08B1FCF796FCFCF7A0F87D
:10A61400FDF754FCFAE700BF18D30200C43700204A
:10A62400C438002029A10200B9A00200A5D202006A
:10A6340010003C004F9F0200B83700202DA20200FA
:10A64400C42A0020BA2A00203435002005A10200C3
:10A6540099A0020099A20200B3D20200C0CA02006B
:10A6640000CB0200C5D202000369C1688B429DBFC2
:10A674008268D21802F1FF3203F1FF3394BF501AFB
:10A68400581A70472DE9F843D0E902940546A9EB1E
:10A6940004084068904520440F46144404D901F04E
:10A6A40004FEEC60BDE8F8834246A4EB090401F023
:10A6B400FCFD6868224607EB0801F0E72DE9F84342
:10A6C400C5680646894617464FF000083469B368E2
:10A6D4007068A54228BFE418013C621B5C1BBC42A5
:10A6E40028BF3C46944228BF144649462844224683
:10A6F40001F0DBFDB3682544AB4208BF00253F1BD6
:10A70400A044A144F560E1D14046BDE8F8830000CF
:10A7140010B5114C114AA2610223C4E90433104B51
:10A72400E361A2644FF400730E4A0F492362E264AA
:10A7340000231022E01DA3626362E362A3656365E4
:10A74400E365226501F00DFE0849204601F009FE8B
:10A754002023A37110BD00BFC439002038D30200E8
:10A764004C3A00203C3A002041D3020045D3020079
:10A77400F8B5184C182300FB033503FB00402544AF
:10A78400C46A012C0F4616460FD0022C1AD0F4B915
:10A794002846FFF769FF864205D8324639462846DF
:10A7A400FFF770FF34462046F8BD2846FFF75CFFEC
:10A7B4008642344628BF0446224639462846FFF7D7
:10A7C40061FFF0E72846BDE8F840FFF777BF0024B3
:10A7D400E9E700BFC4390020FFF79ABF6DDF704777
:10A7E40079DF70477DDF704764DF70472DE9F04FF4
:10A7F40085B000250E9CBDF83CB0B4F800A00191D2
:10A80400074690461E46A9463A884A450DDC45B19E
:10A814002388013BA3EB0A039BB2FF2B3AD806F82B
:10A824000A30002005B0BDE8F08F7A6852F829009C
:10A83400039000220DF10B0103A8FFF7D5FF0028B8
:10A84400F0D19DF80B20424521D12288002D14BF60
:10A854000020022002EB0801014459451ADC3DB9ED
:10A86400013292B2019B2280B354228801322280A9
:10A8740022880DF10B01324403A8FFF7B5FF00282D
:10A88400D0D121889DF80B200A442280012509F1AA
:10A894000109B9E70C20C5E72DE9F341089FBDF88C
:10A8A40024801546CDE90078022204461E46FFF7AF
:10A8B4009DFF50B93346102229462046CDE9087839
:10A8C40002B0BDE8F041FFF791BF02B0BDE8F081EE
:10A8D4002DE9F04F00231788138090F82D3085B0B0
:10A8E40006460D46144653B3082F01D80C2027E121
:10A8F40002A8FFF773FF002840F022812388082272
:10A90400EA54238801339BB21B222380EA54208813
:10A91400013080B2208006220DF10901284401F0A3
:10A92400C4FC23889DF8082006339BB212F0FE0273
:10A9340018BF01222380EA54238801332380B3788B
:10A94400FBB123880433BB42D0D802A8FFF748FFE9
:10A95400002840F0F58023880322EA542388013339
:10A964009BB219222380EA542388BDF808200133BE
:10A974009BB2E9182380EA54120A4A7023880233EE
:10A984002380F2789AB12388D91CB942AED8022127
:10A99400E954238801339BB201212380E95423889D
:10A9A4000B449BB22380EA5423880B4423807268AF
:10A9B400AAB12388D91CB94298D8022192F900205F
:10A9C400E954238801339BB20A212380E954238864
:10A9D40001339BB22380EA542388013323803389D3
:10A9E400002B40F0A180338A5BB1CDE900472B46B0
:10A9F4000722032106F11000FFF74EFF002840F064
:10AA04009F80338B5BB1CDE900472B46152214217F
:10AA140006F11800FFF740FF002840F09180326AE9
:10AA2400002A40F09080D6F82480B8F1000F30D08E
:10AA3400B8F804302188981C8A1C0244BA423FF6B4
:10AA440055AFFE283FF652AF03336B5423880133CE
:10AA54009BB2FF222380EA54238801339BB22380D4
:10AA6400B8F80020EA54E918120A4A702088023023
:10AA740080B22080B8F804205AB1D8F80810002910
:10AA84006BD0284401F011FC2388B8F80420134447
:10AA9400238096F82C30002B40F09A8030780028E0
:10AAA4004ED03388012B58D0228802F1020CBC45C9
:10AAB4003FF61CAF012805D17378023313449F423B
:10AAC400FFF414AF023FBF1ABFB202A905EB0C009A
:10AAD400ADF80870FFF786FE90BB3178BDF80830FA
:10AAE400022900F0BA8072789A4202D3BB4240F243
:10AAF400B280012940F0B380974293B2C0F0AF8096
:10AB0400ADF808300821BDF80830FE2B3FF6EEAE54
:10AB140022880133AB542288013292B22280A95494
:10AB24002288134423800BE0CDE900472B460622FC
:10AB3400022106F10800FFF7AFFE00283FF453AFEF
:10AB440005B0BDE8F08FB4F800C00CF10603BB42B9
:10AB54003FF6CCAE1188052901D80720F0E76FF441
:10AB6400486E01EB0E039BB24FF27D3E7345F4D960
:10AB74005388052BF1D96FF44860181880B27045DA
:10AB8400EBD94FF6FF70814203D0834201D0994242
:10AB9400E3D8052305F80C30238801339BB2122136
:10ABA4002380E954238801339BB223801188E9541C
:10ABB400E818090A4170238802339BB22380528823
:10ABC400EA54E918120A4A702388023323802AE7D8
:10ABD400B36A002BC1D04FF000094FF00C0A4FF0BC
:10ABE400160B96F82C305FFA89F293427FF656AF33
:10ABF400B16A0AFB02F201EB0208B8F80430981CAF
:10AC0400FE283FF673AE208803332B542388013388
:10AC14009BB2238005F803B0238801339BB22380C1
:10AC24008A5AEA54E918120A4A702088023080B21B
:10AC34002080B8F804205AB1D8F8081000298CD024
:10AC4400284401F032FB2388B8F8042013442380FD
:10AC540009F10109C5E7092155E7BB42FBD9ADF864
:10AC640008704FE770B5C0B14AB116880024B442E9
:10AC740003D305196D789D4208D0A14201D8002064
:10AC84000BE0055D01352C44A4B2F0E7A142F6D9EE
:10AC9400A31C1380005D013880B270BD13B5134648
:10ACA4000022ADF806200DF106020446FFF7DAFF94
:10ACB40010B1BDF80630E01802B010BD72DF704765
:10ACC40073DF704774DF704738B5012204460D46C0
:10ACD400B0F83812D0F83402FFF7E0FF00B1057085
:10ACE40004F13C0204F50D7104F15400BDE8384050
:10ACF400FFF7E4BF80F830107047F8B504460F46FC
:10AD040000296DD000286BD091F87A301BB191F8EE
:10AD14009830002B66D14FF0000C84F802C007F184
:10AD240078060FCE251D0FC50FCE0FC596E8070078
:10AD340085E8070084F830C0D7F8A4306363D7F8F7
:10AD4400A830A3634FF6FF7504F50D73C4F84432BD
:10AD5400A4F848520722614604F24A2001F0CEFAD0
:10AD640023780BB984F8545094F82430002B14BF82
:10AD7400EE231F2304F15501C4F83412A4F8383229
:10AD840004F50E723846FFF7A3FD40BB94F8243057
:10AD9400002B14BFEE231F2304F24311C4F83C120A
:10ADA400A4F8403204F5107207F13C00FFF790FD5F
:10ADB400A8B9A369A4F848304FF480730125A4F816
:10ADC400503063692064014684F83C50636404F1A4
:10ADD4003C0204F15400FFF771FF00B92570F8BD7F
:10ADE4000E20FCE70720FAE7F8B5077804460D467D
:10ADF400002F00F0078100F24A268170072200210B
:10AE0400304601F07BFAE38813B1A378012B04D018
:10AE1400E3794BB1A378022B06D1636B9BB101227A
:10AE240084F8512208209847324604F5147112F828
:10AE3400013F5BB99142FAD16A1E032A52D8DFE876
:10AE440002F0070D111484F85132EDE73B46F3E7A5
:10AE5400A2791AB194F8242002B95BB9E2790AB153
:10AE6400002B41D1237A002B40D1637A002B0CBFF5
:10AE740000250425636BA570002B39D0033D012DFB
:10AE840036D86279A2B394F852228ABB84F8542249
:10AE9400012284F853220720984704F13C05182224
:10AEA4000021284601F02AFAE26A0123511E994240
:10AEB40084F83C3001D9042A1ED1D3B294F824205A
:10AEC40084F851301AB1CFB1A36A84F85230A17812
:10AED400002384F8503004291FD8DFE801F07B11E7
:10AEE40026395D000025C5E70225C3E70325C1E730
:10AEF400002384F85332D0E70027DFE70123E4E797
:10AF0400C4E91063C4F844320223012284F83C30BB
:10AF1400802384F83120A4F84830A378002B5CD136
:10AF2400636B002B6AD1002067E00223002A84F8B7
:10AF3400313014BF0723032384F83C302369A4F879
:10AF440048300023C4F84432E36826646364E4E7C9
:10AF540063696364A369A4F8483012B1062384F8D2
:10AF64003C306379B3B194F852329BB994F85432BB
:10AF740083B1022384F8503004212046FFF7A4FE55
:10AF84000028CAD1052384F8313004F50D73C4F8C0
:10AF94004432C2E70323F6E7E3696364236AA4F84F
:10AFA400483012B1062384F83C30637983B194F8B5
:10AFB40052326BB994F8543253B1022384F85030AE
:10AFC40004212046FFF780FE0028A6D10623DAE7F5
:10AFD4000423D8E784F831309FE7D4F844122A4692
:10AFE40004F15400FFF76AFE38B994F8301094F86D
:10AFF4005400FFF765FE002892D0F8BD94F83100A4
:10B00400984790E70820F8E70388112B10B50C4601
:10B014000AD0262B1FD0102B05D1C37B012B02D1C4
:10B024008388A1F8483210BD0022838881F8522217
:10B03400B1F848229A42F6D10B79002BF3D10121C1
:10B044002046FFF7D1FE0028EDD0A36B002BEAD0F9
:10B05400BDE810401847037A013B012BE3D88978F7
:10B0640005230131B1FBF3F303EB8303C91AC9B21E
:10B07400E6E7704738B5044690F85400FFF722FE1F
:10B08400012384F85232002384F8543284F8503077
:10B0940006212046FFF718FE054638B9A178204658
:10B0A400FFF7A2FE10B1A36B03B19847284638BD41
:10B0B40075DF704776DF70477ADF70477BDF704754
:10B0C400034B1A8882420CBF18460020704700BF09
:10B0D400683C0020024B9B6903B11847704700BFCE
:10B0E4004C3C002073B585B22846FFF7E9FF0446BF
:10B0F40070B1164E027A337B9A420BD200F10A01E8
:10B104002846FFF7D5FFE8B1112801D0FFF7E2FF89
:10B1140002B070BD00230372337C43B13B21284647
:10B12400FFF7C8FF30F0080301D0FFF7D3FF7369BE
:10B13400002BEDD000228DF80420ADF8065001A8B4
:10B144009847E5E7237A01332372E1E74C3C00207A
:10B1540037B50B46497A0F4A71B9D2E901141D7A01
:10B164000246002D18BF21465868FCF7B3F908B110
:10B17400FFF7B0FF03B030BD002119725369002BF3
:10B18400F8D00122ADF806008DF8042001A89847F4
:10B19400F0E700BF4C3C00204B8802889A4213D849
:10B1A40042889A4210D380888A8840F2F3139842E6
:10B1B40094BF031AC31A934206D800F2F3109042C4
:10B1C40034BF002001207047002070470388122BF1
:10B1D40070B5014659D004D8102B1ED0112B44D081
:10B1E40070BD502BFCD12F4BC288DB899A42F7D11A
:10B1F400038A022BF4D186883046FFF761FF0546A7
:10B204000028EDD001F1120000F05DF938BB686848
:10B21400FCF7A8F90028E3D009E0C37B012BDFD1B8
:10B224004FF6FF70FFF74CFF054620B90420BDE838
:10B234007040FFF74FBF1C4A8E88068000230372BC
:10B244001368C0F80A305368C0F80E3010310A3061
:10B25400FFF7A2FF134B6872DB89002BC0D129468C
:10B264003046BDE87040FFF773BF8088FFF728FFC2
:10B2740004460028B4D04068FCF774F908B1FFF71D
:10B2840029FF4FF6FF732380AAE786883046FFF72D
:10B2940017FF05460028A3D008310A30FFF77CFFCA
:10B2A4006872DCE74C3C00207C3C0020F8B5064684
:10B2B40048B305460FCD154F3C460FC495E807002B
:10B2C40084E807003068124C3C60B0B1FFF7F4FE2C
:10B2D400C0B9326813682360536863600D480E4A2E
:10B2E4004FF6FF7303800D4B40F8043F0021FCF739
:10B2F400DFF8002818BF032004E02046FFF7DEFE35
:10B304000028EBD0F8BD0E20FCE700BF4C3C002029
:10B314007C3C0020683C0020E9B00200843C002012
:10B3240073B50191019C06466CB100252C46294653
:10B3340001A8FCF77EFA18B106EB440301349D80A2
:10B344000135142DF3D13046346002B070BD0000D5
:10B354002DE9F04703888488112B8CB005463CD036
:10B364001A2B3FD0102B17D1284EB368DB43009320
:10B3740071686846FCF789FA009901A8FFF7D0FFC5
:10B384000DF108094FF00008019B984507D3132CD1
:10B3940013D90420FBF7D0FD0CB0BDE8F08739F8D1
:10B3A40002AB00270137514606EB8700FCF737FA5A
:10B3B4001D2FF7D108F10108E6E715482146FCF7EF
:10B3C40025FA14482146FCF721FAEB7B012BE3D044
:10B3D40011482146FCF71AFADEE70D482146FCF72E
:10B3E4001EFAD9E7037A0D481F2B4FEA131521469D
:10B3F40006D9FCF70BFA022D09482146EAD1EEE7FB
:10B40400FCF70DFA06482146E9E700BFA43C0020FA
:10B41400AC3C0020A83C0020B03C0020B43C002000
:10B42400B83C00201328014602D80248FCF701BAB0
:10B4340000207047A83C002010B50446FFF7F2FF37
:10B44400002814BF2046142010BD70B505461646CA
:10B4540008460AB90E2070BD00231360002DF9D0F0
:10B464002B68002BF6D0EB8813F003040ED1FFF702
:10B47400E3FFC0B214280BD02B7983420AD9EB889E
:10B484002A6800FB032030602046E4E70720E2E757
:10B494000520E0E70420DEE7AADF70470023013837
:10B4A4000B70042806D8DFE800F00306080A0C0035
:10B4B40011230B7070472123FBE73123F9E7122393
:10B4C400F7E72223F5E7007800F001007047F0B5B4
:10B4D4008B7891B0012B0C4638BF01238DF80E30C8
:10B4E40005460B88ADF80C30002116466846032249
:10B4F40000F004FF607C6946FFF7D0FFA07C0DF1EB
:10B504000101FFF7CBFFE27B237B217D43EAC203EA
:10B51400227C43EA02139DF80220002922F019023A
:10B5240003F0190314BF02210121134361F3420301
:10B534001C22002109A88DF8023000F0DFFE637B95
:10B5440013F0300F15D002AF03220021384600F06B
:10B55400D5FEE07C0DF10901FFF7A0FF11238DF862
:10B5640008309DF80A300E97012262F342038DF8E9
:10B574000A30637B8DF824301422A37B8DF82530A8
:10B58400002104A800F0BAFE03AB0493A388ADF82D
:10B594001C30A368CDF814D01BB1E288ADF8182094
:10B5A4000893A369002B31D001AF03220021384650
:10B5B40000F0A4FEA3691A88ADF82C205A88ADF8CF
:10B5C4002E205A680D97187B0A923946FFF766FFBA
:10B5D400A3690DF10501587BFFF760FFA269917A19
:10B5E400137A43EAC103D17A927B43EA01139DF8AB
:10B5F4000610002A03F0190321F0190114BF0222D6
:10B6040001220B4362F342038DF80630E36903B170
:10B614000C93334604AA09A92846FFF73DFF11B04D
:10B62400F0BD90DF7047A5DF7047B5DF70470000BD
:10B634007FB50023ADF80810ADF80A106A4602A9D8
:10B64400064603930093ADF80430FFF7EAFF05467E
:10B6540000B3124B124CE41AE408FCF793FC2404E4
:10B6640044F0010403460F4932462046FBF7D9F95A
:10B67400BDF80020BDF8023052EA030103D00A49A4
:10B684002046FBF7CEF9BDF804201AB1074920463D
:10B69400FBF7BEF9284604B070BD00BFC0CA020063
:10B6A40018CB02004CD3020096D30200D5D302007B
:10B6B40080B14FF0F7130360FB230371F723C380BA
:10B6C4001723038141F6FB32002301614381828108
:10B6D400184670470E20704730B1A1F11703E02BD4
:10B6E40004D80180002070470E207047072070475F
:10B6F40013B5034680880C46B8B91A88242A00F08A
:10B70400968014D8112A71D0232A00F09E80102A22
:10B714003BD0A37A4BB1E1880020FFF784FF0028D7
:10B7240040F099804FF48073638102B010BD3A2ACF
:10B7340065D0552AEDD1DB88C988A072172B38BF94
:10B7440017238B4228BF0B462381FFF76EFF60B19E
:10B75400FCF718FC484B4949024649481B1ADB08C8
:10B764001B0443F00100FBF753F9E37A002BD0D11B
:10B774002369002BCDD040F6772200922289ADF8C0
:10B784000420694620469847C3E7DB7B0A790A739D
:10B79400012B13D0022B14D0E18823898B4205D2CC
:10B7A4000020FFF740FF70B90123E372217B637B24
:10B7B4008B42AED20020FFF73BFFAAE70B88E38061
:10B7C400EAE74B88FBE7112802D10123A372EDE7D6
:10B7D400FCF7D8FB284B2B49024629481B1ADB08E7
:10B7E4001B0443F00100FBF713F9DFE7F723CB80D9
:10B7F40017230B8141F6FB3348818B8189E75B89F1
:10B80400CA88934228BF1346172B0A6938BF1723E7
:10B814000B814AB1C97A39B140F677210091ADF86C
:10B8240004306946204690470023638171E71A7A01
:10B834000B694A73002B3FF46CAF4DF67A218DF8F7
:10B84400050000918DF804209BE7197A237B994227
:10B8540028BF1946AFE711283FF467AFFCF792FB06
:10B86400054B0849024606481B1ADB081B0443F033
:10B874000100FBF7CDF858E718CB02005CD40200B6
:10B88400C0CA02002BD40200B0DF704766DF7047E5
:10B8940010B5002104464088FFF7F8FF034608B9B5
:10B8A400237210BD112801D10123F9E76368BDE8B3
:10B8B4001040184760B159B10378DE2B0AD00B68E9
:10B8C4004360DE2303704FF6FF734380002070470C
:10B8D4000E2070470820704728B10378DE2B04D16E
:10B8E4004180002070470E20704708207047F0B553
:10B8F400054685B00C46F1B1E8B10B78DE2B1AD1C0
:10B9040082884B889A4204D10B7A13B10846FFF718
:10B91400BFFF2B88112B32D0512B0ED0012B0AD113
:10B924002B7A012B07D1A9886288914203D1237213
:10B934002046FFF7ADFF05B0F0BDAE886388B34283
:10B94400F9D1AF79022FF6D1AD7B2B1F022BF2D8A0
:10B9540000211022684600F0D1FC052D14BF4FF4DD
:10B96400C0730023694630468DF80070ADF804308A
:10B97400FFF78AFF0028DED063689847DBE7638817
:10B98400AA889A4204BF4FF6FF736380D3E7A8DF07
:10B994007047ADDF7047AEDF704762DF704770B548
:10B9A40005468AB00C46002962D0002860D003887E
:10B9B400502B37D0572B72D0102B59D18188606906
:10B9C400002601AA0196FFF740FD082231460DEB3F
:10B9D400020000F093FC0223218AA888CDF80CD041
:10B9E40002AA0293FFF7D5FF002841D1A369002BD7
:10B9F4003ED00398FFF767FD002839D0019B0BB1B7
:10BA040001221A701822002104A800F077FC0223F6
:10BA14008DF81030AB88ADF81830019B059407936E
:10BA2400A36923E08188606902AAFFF70EFD18224A
:10BA3400002104A800F062FCAB882189ADF818301D
:10BA4400EB88029A05949942079218D12E8A022E05
:10BA540015D16AB105F11200FFF735FD029B48B11B
:10BA640001221A708DF81060A3690BB104A89847DD
:10BA74000AB070BD187003238DF81030F4E7A28962
:10BA84009A42F5D1A369002BF2D000228DF8102040
:10BA940005F1120208922A8AADF82420E6E781888B
:10BAA400606902AAFFF7D1FC01460028E0D1029B9D
:10BAB4001B78002BDCD0182204A800F01FFC012303
:10BAC4008DF81030AB88ADF818300594029BA6E7CA
